{
  "contractName": "ElektaMain",
  "abi": [
    {
      "inputs": [],
      "payable": false,
      "stateMutability": "nonpayable",
      "type": "constructor"
    },
    {
      "anonymous": false,
      "inputs": [
        {
          "indexed": false,
          "internalType": "address",
          "name": "_projectAddress",
          "type": "address"
        },
        {
          "indexed": false,
          "internalType": "enum ElektaMain.FundAlert",
          "name": "alert",
          "type": "uint8"
        },
        {
          "indexed": false,
          "internalType": "uint256",
          "name": "amount",
          "type": "uint256"
        }
      ],
      "name": "FundProject",
      "type": "event"
    },
    {
      "anonymous": false,
      "inputs": [
        {
          "indexed": false,
          "internalType": "string",
          "name": "_projectName",
          "type": "string"
        }
      ],
      "name": "ProjectCreated",
      "type": "event"
    },
    {
      "constant": true,
      "inputs": [
        {
          "internalType": "uint256",
          "name": "",
          "type": "uint256"
        }
      ],
      "name": "elektaGroup",
      "outputs": [
        {
          "components": [
            {
              "internalType": "uint256",
              "name": "id",
              "type": "uint256"
            },
            {
              "internalType": "string",
              "name": "name",
              "type": "string"
            },
            {
              "internalType": "string",
              "name": "symbol",
              "type": "string"
            },
            {
              "internalType": "bool",
              "name": "exists",
              "type": "bool"
            },
            {
              "internalType": "address payable",
              "name": "creatorAddress",
              "type": "address"
            }
          ],
          "internalType": "struct IGroupSchema.Group",
          "name": "_groupByXend",
          "type": "tuple"
        },
        {
          "components": [
            {
              "internalType": "address",
              "name": "_projectAddress",
              "type": "address"
            },
            {
              "internalType": "string",
              "name": "_projectName",
              "type": "string"
            },
            {
              "internalType": "string",
              "name": "_projectDesc",
              "type": "string"
            }
          ],
          "internalType": "struct ElektaMain.ProjectDetail",
          "name": "_elektaProjectDetails",
          "type": "tuple"
        }
      ],
      "payable": false,
      "stateMutability": "view",
      "type": "function"
    },
    {
      "constant": true,
      "inputs": [
        {
          "internalType": "address",
          "name": "",
          "type": "address"
        }
      ],
      "name": "elektaProjects",
      "outputs": [
        {
          "internalType": "address",
          "name": "_projectAddress",
          "type": "address"
        },
        {
          "internalType": "string",
          "name": "_projectName",
          "type": "string"
        },
        {
          "internalType": "string",
          "name": "_projectDesc",
          "type": "string"
        }
      ],
      "payable": false,
      "stateMutability": "view",
      "type": "function"
    },
    {
      "constant": true,
      "inputs": [
        {
          "internalType": "address",
          "name": "",
          "type": "address"
        },
        {
          "internalType": "address",
          "name": "",
          "type": "address"
        }
      ],
      "name": "fundProject",
      "outputs": [
        {
          "internalType": "uint256",
          "name": "",
          "type": "uint256"
        }
      ],
      "payable": false,
      "stateMutability": "view",
      "type": "function"
    },
    {
      "constant": true,
      "inputs": [],
      "name": "owner",
      "outputs": [
        {
          "internalType": "address",
          "name": "",
          "type": "address"
        }
      ],
      "payable": false,
      "stateMutability": "view",
      "type": "function"
    },
    {
      "constant": false,
      "inputs": [
        {
          "internalType": "string",
          "name": "projectName",
          "type": "string"
        },
        {
          "internalType": "string",
          "name": "projectDesc",
          "type": "string"
        }
      ],
      "name": "createNewProject",
      "outputs": [],
      "payable": false,
      "stateMutability": "nonpayable",
      "type": "function"
    },
    {
      "constant": false,
      "inputs": [
        {
          "internalType": "string",
          "name": "_name",
          "type": "string"
        },
        {
          "internalType": "string",
          "name": "_symbol",
          "type": "string"
        }
      ],
      "name": "createElektaGroup",
      "outputs": [
        {
          "internalType": "uint256",
          "name": "",
          "type": "uint256"
        }
      ],
      "payable": true,
      "stateMutability": "payable",
      "type": "function"
    },
    {
      "constant": false,
      "inputs": [
        {
          "internalType": "address payable",
          "name": "_projectAddr",
          "type": "address"
        },
        {
          "internalType": "uint256",
          "name": "amount",
          "type": "uint256"
        }
      ],
      "name": "fundAProject",
      "outputs": [],
      "payable": false,
      "stateMutability": "nonpayable",
      "type": "function"
    },
    {
      "constant": false,
      "inputs": [
        {
          "internalType": "address payable",
          "name": "_addr",
          "type": "address"
        },
        {
          "internalType": "uint256",
          "name": "_id",
          "type": "uint256"
        }
      ],
      "name": "joinAGroup",
      "outputs": [],
      "payable": false,
      "stateMutability": "nonpayable",
      "type": "function"
    }
  ],
  "bytecode": "0x60806040526000600155600060025534801561001a57600080fd5b50336000806101000a81548173ffffffffffffffffffffffffffffffffffffffff021916908373ffffffffffffffffffffffffffffffffffffffff160217905550732060fe1ae5ef46421e142f14f703b81ea816615b600460006101000a81548173ffffffffffffffffffffffffffffffffffffffff021916908373ffffffffffffffffffffffffffffffffffffffff160217905550612055806100bf6000396000f3fe608060405260043610620000865760003560e01c8063b750d6d91162000055578063b750d6d9146200017b578063c2e1c1c514620001c0578063ee0650d714620001ee578063fa45aaee146200021c5762000086565b806338e39bb3146200008b5780633b3c5fda14620000c1578063667420ee14620001055780638da5cb5b146200014b575b600080fd5b620000a96004803603620000a3919081019062000e38565b6200024a565b604051620000b89190620012fa565b60405180910390f35b348015620000ce57600080fd5b50620000ed6004803603620000e7919081019062000df7565b62000353565b604051620000fc9190620012fa565b60405180910390f35b3480156200011257600080fd5b506200013160048036036200012b919081019062000d8a565b62000378565b6040516200014293929190620011ca565b60405180910390f35b3480156200015857600080fd5b5062000163620004fa565b60405162000172919062001143565b60405180910390f35b3480156200018857600080fd5b50620001a76004803603620001a1919081019062000eab565b6200051f565b604051620001b7929190620012bf565b60405180910390f35b348015620001cd57600080fd5b50620001ec6004803603620001e6919081019062000e38565b620008c0565b005b348015620001fb57600080fd5b506200021a600480360362000214919081019062000db6565b62000aab565b005b3480156200022957600080fd5b5062000248600480360362000242919081019062000db6565b62000b3e565b005b6000600160026000828254019250508190555060006040516200026d9062000c07565b604051809103906000f0801580156200028a573d6000803e3d6000fd5b5090506000600460009054906101000a900473ffffffffffffffffffffffffffffffffffffffff1673ffffffffffffffffffffffffffffffffffffffff16639a2597988686856040518463ffffffff1660e01b8152600401620002f09392919062001274565b602060405180830381600087803b1580156200030b57600080fd5b505af115801562000320573d6000803e3d6000fd5b505050506040513d601f19601f8201168201806040525062000346919081019062000ed7565b9050809250505092915050565b6006602052816000526040600020602052806000526040600020600091509150505481565b60056020528060005260406000206000915090508060000160009054906101000a900473ffffffffffffffffffffffffffffffffffffffff1690806001018054600181600116156101000203166002900480601f0160208091040260200160405190810160405280929190818152602001828054600181600116156101000203166002900480156200044e5780601f1062000422576101008083540402835291602001916200044e565b820191906000526020600020905b8154815290600101906020018083116200043057829003601f168201915b505050505090806002018054600181600116156101000203166002900480601f016020809104026020016040519081016040528092919081815260200182805460018160011615610100020316600290048015620004f05780601f10620004c457610100808354040283529160200191620004f0565b820191906000526020600020905b815481529060010190602001808311620004d257829003601f168201915b5050505050905083565b6000809054906101000a900473ffffffffffffffffffffffffffffffffffffffff1681565b6007602052806000526040600020600091509050806000016040518060a001604052908160008201548152602001600182018054600181600116156101000203166002900480601f016020809104026020016040519081016040528092919081815260200182805460018160011615610100020316600290048015620005e95780601f10620005bd57610100808354040283529160200191620005e9565b820191906000526020600020905b815481529060010190602001808311620005cb57829003601f168201915b50505050508152602001600282018054600181600116156101000203166002900480601f0160208091040260200160405190810160405280929190818152602001828054600181600116156101000203166002900480156200068f5780601f1062000663576101008083540402835291602001916200068f565b820191906000526020600020905b8154815290600101906020018083116200067157829003601f168201915b505050505081526020016003820160009054906101000a900460ff161515151581526020016003820160019054906101000a900473ffffffffffffffffffffffffffffffffffffffff1673ffffffffffffffffffffffffffffffffffffffff1673ffffffffffffffffffffffffffffffffffffffff168152505090806004016040518060600160405290816000820160009054906101000a900473ffffffffffffffffffffffffffffffffffffffff1673ffffffffffffffffffffffffffffffffffffffff1673ffffffffffffffffffffffffffffffffffffffff168152602001600182018054600181600116156101000203166002900480601f0160208091040260200160405190810160405280929190818152602001828054600181600116156101000203166002900480156200080c5780601f10620007e0576101008083540402835291602001916200080c565b820191906000526020600020905b815481529060010190602001808311620007ee57829003601f168201915b50505050508152602001600282018054600181600116156101000203166002900480601f016020809104026020016040519081016040528092919081815260200182805460018160011615610100020316600290048015620008b25780601f106200088657610100808354040283529160200191620008b2565b820191906000526020600020905b8154815290600101906020018083116200089457829003601f168201915b505050505081525050905082565b60008282604051620008d29062000c15565b620008df92919062001239565b604051809103906000f080158015620008fc573d6000803e3d6000fd5b50905060405180606001604052808273ffffffffffffffffffffffffffffffffffffffff16815260200184815260200183815250600560008373ffffffffffffffffffffffffffffffffffffffff1673ffffffffffffffffffffffffffffffffffffffff16815260200190815260200160002060008201518160000160006101000a81548173ffffffffffffffffffffffffffffffffffffffff021916908373ffffffffffffffffffffffffffffffffffffffff1602179055506020820151816001019080519060200190620009d492919062000c23565b506040820151816002019080519060200190620009f392919062000c23565b5090505060038190806001815401808255809150509060018203906000526020600020016000909192909190916101000a81548173ffffffffffffffffffffffffffffffffffffffff021916908373ffffffffffffffffffffffffffffffffffffffff160217905550507f1d9633bff7d0a58c4a25dc562a94b73474abdf064235c050de1a830462ee23fa8360405162000a8e919062001215565b60405180910390a160018060008282540192505081905550505050565b60003373ffffffffffffffffffffffffffffffffffffffff1631905060008373ffffffffffffffffffffffffffffffffffffffff1631905082821162000af057600080fd5b828203915082810190507f20ed2368f4a963d1fe9778db95ff96917086fdf2deafdd9ab4d0c2d64fdeb43f8460008560405162000b309392919062001160565b60405180910390a150505050565b600060405162000b4e9062000c07565b604051809103906000f08015801562000b6b573d6000803e3d6000fd5b5090508073ffffffffffffffffffffffffffffffffffffffff16636557e85884846040518363ffffffff1660e01b815260040162000bab9291906200119d565b602060405180830381600087803b15801562000bc657600080fd5b505af115801562000bdb573d6000803e3d6000fd5b505050506040513d601f19601f8201168201806040525062000c01919081019062000ed7565b50505050565b61022d806200152083390190565b6108c6806200174d83390190565b828054600181600116156101000203166002900490600052602060002090601f016020900481019282601f1062000c6657805160ff191683800117855562000c97565b8280016001018555821562000c97579182015b8281111562000c9657825182559160200191906001019062000c79565b5b50905062000ca6919062000caa565b5090565b62000ccf91905b8082111562000ccb57600081600090555060010162000cb1565b5090565b90565b60008135905062000ce381620014d1565b92915050565b60008135905062000cfa81620014eb565b92915050565b600082601f83011262000d1257600080fd5b813562000d2962000d238262001345565b62001317565b9150808252602083016020830185838301111562000d4657600080fd5b62000d538382846200146d565b50505092915050565b60008135905062000d6d8162001505565b92915050565b60008151905062000d848162001505565b92915050565b60006020828403121562000d9d57600080fd5b600062000dad8482850162000cd2565b91505092915050565b6000806040838503121562000dca57600080fd5b600062000dda8582860162000ce9565b925050602062000ded8582860162000d5c565b9150509250929050565b6000806040838503121562000e0b57600080fd5b600062000e1b8582860162000cd2565b925050602062000e2e8582860162000cd2565b9150509250929050565b6000806040838503121562000e4c57600080fd5b600083013567ffffffffffffffff81111562000e6757600080fd5b62000e758582860162000d00565b925050602083013567ffffffffffffffff81111562000e9357600080fd5b62000ea18582860162000d00565b9150509250929050565b60006020828403121562000ebe57600080fd5b600062000ece8482850162000d5c565b91505092915050565b60006020828403121562000eea57600080fd5b600062000efa8482850162000d73565b91505092915050565b62000f0e816200141d565b82525050565b62000f1f81620013be565b82525050565b62000f3081620013be565b82525050565b62000f4181620013aa565b82525050565b62000f5281620013aa565b82525050565b62000f6381620013d2565b82525050565b62000f748162001431565b82525050565b600062000f87826200137d565b62000f93818562001399565b935062000fa58185602086016200147c565b62000fb081620014b2565b840191505092915050565b600062000fc88262001372565b62000fd4818562001388565b935062000fe68185602086016200147c565b62000ff181620014b2565b840191505092915050565b6000620010098262001372565b62001015818562001399565b9350620010278185602086016200147c565b6200103281620014b2565b840191505092915050565b600060a08301600083015162001057600086018262001121565b506020830151848203602086015262001071828262000fbb565b915050604083015184820360408601526200108d828262000fbb565b9150506060830151620010a4606086018262000f58565b506080830151620010b9608086018262000f14565b508091505092915050565b6000606083016000830151620010de600086018262000f36565b5060208301518482036020860152620010f8828262000fbb565b9150506040830151848203604086015262001114828262000fbb565b9150508091505092915050565b6200112c8162001413565b82525050565b6200113d8162001413565b82525050565b60006020820190506200115a600083018462000f47565b92915050565b600060608201905062001177600083018662000f03565b62001186602083018562000f69565b62001195604083018462001132565b949350505050565b6000604082019050620011b4600083018562000f25565b620011c3602083018462001132565b9392505050565b6000606082019050620011e1600083018662000f47565b8181036020830152620011f5818562000ffc565b905081810360408301526200120b818462000ffc565b9050949350505050565b6000602082019050818103600083015262001231818462000f7a565b905092915050565b6000604082019050818103600083015262001255818562000f7a565b905081810360208301526200126b818462000f7a565b90509392505050565b6000606082019050818103600083015262001290818662000f7a565b90508181036020830152620012a6818562000f7a565b9050620012b7604083018462000f47565b949350505050565b60006040820190508181036000830152620012db81856200103d565b90508181036020830152620012f18184620010c4565b90509392505050565b600060208201905062001311600083018462001132565b92915050565b6000604051905081810181811067ffffffffffffffff821117156200133b57600080fd5b8060405250919050565b600067ffffffffffffffff8211156200135d57600080fd5b601f19601f8301169050602081019050919050565b600081519050919050565b600081519050919050565b600082825260208201905092915050565b600082825260208201905092915050565b6000620013b782620013f3565b9050919050565b6000620013cb82620013f3565b9050919050565b60008115159050919050565b6000819050620013ee82620014c3565b919050565b600073ffffffffffffffffffffffffffffffffffffffff82169050919050565b6000819050919050565b60006200142a8262001445565b9050919050565b60006200143e82620013de565b9050919050565b6000620014528262001459565b9050919050565b60006200146682620013f3565b9050919050565b82818337600083830152505050565b60005b838110156200149c5780820151818401526020810190506200147f565b83811115620014ac576000848401525b50505050565b6000601f19601f8301169050919050565b60038110620014ce57fe5b50565b620014dc81620013aa565b8114620014e857600080fd5b50565b620014f681620013be565b81146200150257600080fd5b50565b620015108162001413565b81146200151c57600080fd5b5056fe60806040526000805534801561001457600080fd5b50610209806100246000396000f3fe608060405234801561001057600080fd5b50600436106100365760003560e01c80636557e8581461003b5780638f23b3261461009d575b600080fd5b6100876004803603604081101561005157600080fd5b81019080803573ffffffffffffffffffffffffffffffffffffffff169060200190929190803590602001909291905050506100bb565b6040518082815260200191505060405180910390f35b6100a56101a9565b6040518082815260200191505060405180910390f35b60008073ffffffffffffffffffffffffffffffffffffffff168373ffffffffffffffffffffffffffffffffffffffff1614610141576040517f08c379a00000000000000000000000000000000000000000000000000000000081526004018080602001828103825260258152602001806101b06025913960400191505060405180910390fd5b826001600084815260200190815260200160002060006101000a81548173ffffffffffffffffffffffffffffffffffffffff021916908373ffffffffffffffffffffffffffffffffffffffff1602179055506001600080828254019250508190555092915050565b6000548156fe4f6e6c792076616c6964206163636f756e742063616e206265636f6d65206d656d62657273a265627a7a723158207e7948c83d2585fea66eab988c9603f75e1f64197245b9eaab7b34d35949ce8364736f6c63430005100032608060405234801561001057600080fd5b506040516108c63803806108c68339818101604052604081101561003357600080fd5b810190808051604051939291908464010000000082111561005357600080fd5b8382019150602082018581111561006957600080fd5b825186600182028301116401000000008211171561008657600080fd5b8083526020830192505050908051906020019080838360005b838110156100ba57808201518184015260208101905061009f565b50505050905090810190601f1680156100e75780820380516001836020036101000a031916815260200191505b506040526020018051604051939291908464010000000082111561010a57600080fd5b8382019150602082018581111561012057600080fd5b825186600182028301116401000000008211171561013d57600080fd5b8083526020830192505050908051906020019080838360005b83811015610171578082015181840152602081019050610156565b50505050905090810190601f16801561019e5780820380516001836020036101000a031916815260200191505b50604052505050600073ffffffffffffffffffffffffffffffffffffffff163373ffffffffffffffffffffffffffffffffffffffff1614156101df57600080fd5b3373ffffffffffffffffffffffffffffffffffffffff16600560009054906101000a900473ffffffffffffffffffffffffffffffffffffffff1673ffffffffffffffffffffffffffffffffffffffff16141561023a57600080fd5b4260008190555030600160006101000a81548173ffffffffffffffffffffffffffffffffffffffff021916908373ffffffffffffffffffffffffffffffffffffffff160217905550816002908051906020019061029892919061030a565b5080600390805190602001906102af92919061030a565b5060046000815480929190600101919050555033600560006101000a81548173ffffffffffffffffffffffffffffffffffffffff021916908373ffffffffffffffffffffffffffffffffffffffff16021790555050506103af565b828054600181600116156101000203166002900490600052602060002090601f016020900481019282601f1061034b57805160ff1916838001178555610379565b82800160010185558215610379579182015b8281111561037857825182559160200191906001019061035d565b5b509050610386919061038a565b5090565b6103ac91905b808211156103a8576000816000905550600101610390565b5090565b90565b610508806103be6000396000f3fe608060405234801561001057600080fd5b506004361061007d5760003560e01c8063937963801161005b578063937963801461016d5780639a33e300146101b1578063aeb5a16d14610234578063bcca8745146102525761007d565b80633cf96af1146100825780633fafa127146100cc5780638f6109db146100ea575b600080fd5b61008a6102c0565b604051808273ffffffffffffffffffffffffffffffffffffffff1673ffffffffffffffffffffffffffffffffffffffff16815260200191505060405180910390f35b6100d46102e6565b6040518082815260200191505060405180910390f35b6100f26102ec565b6040518080602001828103825283818151815260200191508051906020019080838360005b83811015610132578082015181840152602081019050610117565b50505050905090810190601f16801561015f5780820380516001836020036101000a031916815260200191505b509250505060405180910390f35b6101af6004803603602081101561018357600080fd5b81019080803573ffffffffffffffffffffffffffffffffffffffff16906020019092919050505061038a565b005b6101b96103f3565b6040518080602001828103825283818151815260200191508051906020019080838360005b838110156101f95780820151818401526020810190506101de565b50505050905090810190601f1680156102265780820380516001836020036101000a031916815260200191505b509250505060405180910390f35b61023c610491565b6040518082815260200191505060405180910390f35b61027e6004803603602081101561026857600080fd5b8101908080359060200190929190505050610497565b604051808273ffffffffffffffffffffffffffffffffffffffff1673ffffffffffffffffffffffffffffffffffffffff16815260200191505060405180910390f35b600160009054906101000a900473ffffffffffffffffffffffffffffffffffffffff1681565b60045481565b60038054600181600116156101000203166002900480601f0160208091040260200160405190810160405280929190818152602001828054600181600116156101000203166002900480156103825780601f1061035757610100808354040283529160200191610382565b820191906000526020600020905b81548152906001019060200180831161036557829003601f168201915b505050505081565b60068190806001815401808255809150509060018203906000526020600020016000909192909190916101000a81548173ffffffffffffffffffffffffffffffffffffffff021916908373ffffffffffffffffffffffffffffffffffffffff1602179055505050565b60028054600181600116156101000203166002900480601f0160208091040260200160405190810160405280929190818152602001828054600181600116156101000203166002900480156104895780601f1061045e57610100808354040283529160200191610489565b820191906000526020600020905b81548152906001019060200180831161046c57829003601f168201915b505050505081565b60005481565b600681815481106104a457fe5b906000526020600020016000915054906101000a900473ffffffffffffffffffffffffffffffffffffffff168156fea265627a7a723158207bc3231a3b9bfe6ad905634b9a68414ae13a7ad9c682dc0d86a1fdf854a9a5f664736f6c63430005100032a365627a7a723158203524d340743fee5529cd8d00ad37d2288d0c2c36df9de6bd24b915220fe6e7656c6578706572696d656e74616cf564736f6c63430005100040",
  "source": "// SPDX-License-Identifier: MIT\npragma solidity >=0.4.22 <0.9.0;\npragma experimental ABIEncoderV2;\n\n\nimport \"./IGroups.sol\";\nimport \"./IGroupSchema.sol\";\nimport \"./ElektaGroups.sol\";\nimport \"./ElektaProjects.sol\";\n\ncontract ElektaMain is IGroupSchema{\n   address public owner;\n\n\n   uint projectCount = 0;\n\n   uint256 groupCount = 0;\n\n   address[] private projectAddress;\n\n   \n   event ProjectCreated(string _projectName);\n\n   event FundProject(address _projectAddress, FundAlert alert, uint256 amount);\n\n   enum FundAlert{Funded, WithDrawned, Suspecded}\n\n   struct ProjectDetail {\n       address _projectAddress;\n       string _projectName;\n       string _projectDesc;\n   }\n\n \n   struct ElektaGroup {\n      Group _groupByXend;\n      ProjectDetail _elektaProjectDetails;\n   }\n\n\n   IGroups private xendAddress;\n   // address private xendAddress2 = 0x41E95e88c0dCEaCe4159f4118217B67038aaE6F0;\n   // address private xendAddressCooperative = 0x21d635b36F54E70b578eAd19448BFa2bB73F96E2;\n\n   mapping(address => ProjectDetail ) public elektaProjects;\n\n   mapping(address => mapping(address => uint256)) public fundProject;\n\n   mapping(uint256 => ElektaGroup) public elektaGroup;\n\n   //bytes32 public constant INIT_CODE_PAIR_HASH = keccak256(abi.encodePacked(type(UniswapV2Pair).creationCode));\n   //git clone https://github.com/Uniswap/uniswap-interface.git\n\n   constructor() public {\n       owner = msg.sender;\n      //  xendAddress  =  IGroups(0x7B2d6633F56c05F76409aE236A2036F07232BBFA);\n       xendAddress  =  IGroups(0x2060Fe1Ae5EF46421E142f14f703b81ea816615b);\n       \n\n   }\n\n   //create new project\n\n   /// @dev Create a new project for the group.\n    /// @param projectName Project name.\n    /// @param projectDesc Project descriptions.\n   function createNewProject(string memory projectName, string memory projectDesc) public {\n      ElektaProjects newProject = new ElektaProjects(projectName, projectDesc);\n      elektaProjects[address(newProject)] = ProjectDetail(address(newProject), projectName, projectDesc);\n      projectAddress.push(address(newProject));  \n      emit ProjectCreated(projectName);     \n      projectCount += 1;      \n\n   }\n\n      //create new Group\n\n   /// @dev Create a new project for the group.\n    /// @param _name Group name.\n    /// @param _symbol Group descriptions.\n\n   function createElektaGroup(\n      string memory _name, \n      string memory _symbol) \n      public payable returns(uint256) {             \n         //bring in instance of the xend group creation interface\n         groupCount += 1;\n         ElektaGroups _elektaGroup = new ElektaGroups();\n\n         //address getGroupAddress = address(_elektaGroup);\n\n         (uint256 lastId) = xendAddress.createGroup(_name, _symbol, address(_elektaGroup));\n\n        // elektaGroup[groupCount] = ElektaGroup( Group(lastId, _name, _symbol, true, getGroupAddress ), ProjectDetail(address(0x0), \"\", \"\") );\n\n         //return(Group(lastId, _name, _symbol, true, payable(getGroupAddress) ));\n\n         return lastId;\n\n   }\n\n\n\n   //contribute to a group\n   function fundAProject(address payable  _projectAddr, uint256 amount) public {\n      uint256 funder = address(msg.sender).balance;\n      uint256 receiver = address(_projectAddr).balance;\n      if (funder <= amount) revert();\n      funder -= amount;\n      receiver += amount;  \n      emit FundProject(_projectAddr, FundAlert.Funded, amount);\n\n   }\n\n   //join a group\n\n   function joinAGroup(address payable _addr, uint _id) public {\n          ElektaGroups _elektaGroup = new ElektaGroups();\n          _elektaGroup.addToGroup(_addr, _id);\n   }\n}",
  "sourcePath": "/home/emplug7/applications/elektav3/contracts/ElektaMain.sol",
  "compiler": {
    "name": "solc",
    "version": "0.5.16+commit.9c3226ce.Emscripten.clang"
  },
  "schemaVersion": "3.3.4",
  "updatedAt": "2021-04-08T19:14:26.380Z",
  "networkType": "ethereum",
  "devdoc": {
    "methods": {
      "createElektaGroup(string,string)": {
        "details": "Create a new project for the group.",
        "params": {
          "_name": "Group name.",
          "_symbol": "Group descriptions."
        }
      },
      "createNewProject(string,string)": {
        "details": "Create a new project for the group.",
        "params": {
          "projectDesc": "Project descriptions.",
          "projectName": "Project name."
        }
      }
    }
  },
  "userdoc": {
    "methods": {}
  }
}