{
  "contractName": "ElektaGroups",
  "abi": [
    {
      "inputs": [],
      "payable": false,
      "stateMutability": "nonpayable",
      "type": "constructor"
    },
    {
      "constant": true,
      "inputs": [],
      "name": "groupCount",
      "outputs": [
        {
          "internalType": "uint256",
          "name": "",
          "type": "uint256"
        }
      ],
      "payable": false,
      "stateMutability": "view",
      "type": "function"
    },
    {
      "constant": false,
      "inputs": [
        {
          "internalType": "address payable",
          "name": "_addr",
          "type": "address"
        },
        {
          "internalType": "uint256",
          "name": "_groupId",
          "type": "uint256"
        }
      ],
      "name": "addToGroup",
      "outputs": [
        {
          "internalType": "uint256",
          "name": "",
          "type": "uint256"
        }
      ],
      "payable": false,
      "stateMutability": "nonpayable",
      "type": "function"
    }
  ],
  "bytecode": "0x60806040526000805534801561001457600080fd5b50610209806100246000396000f3fe608060405234801561001057600080fd5b50600436106100365760003560e01c80636557e8581461003b5780638f23b3261461009d575b600080fd5b6100876004803603604081101561005157600080fd5b81019080803573ffffffffffffffffffffffffffffffffffffffff169060200190929190803590602001909291905050506100bb565b6040518082815260200191505060405180910390f35b6100a56101a9565b6040518082815260200191505060405180910390f35b60008073ffffffffffffffffffffffffffffffffffffffff168373ffffffffffffffffffffffffffffffffffffffff1614610141576040517f08c379a00000000000000000000000000000000000000000000000000000000081526004018080602001828103825260258152602001806101b06025913960400191505060405180910390fd5b826001600084815260200190815260200160002060006101000a81548173ffffffffffffffffffffffffffffffffffffffff021916908373ffffffffffffffffffffffffffffffffffffffff1602179055506001600080828254019250508190555092915050565b6000548156fe4f6e6c792076616c6964206163636f756e742063616e206265636f6d65206d656d62657273a265627a7a723158207e7948c83d2585fea66eab988c9603f75e1f64197245b9eaab7b34d35949ce8364736f6c63430005100032",
  "source": "// SPDX-License-Identifier: MIT\npragma solidity >=0.4.22 <0.9.0;\n\n\n\nimport \"./IGroups.sol\";\n\ncontract ElektaGroups {\n\n    uint public groupCount = 0;\n\n    // struct GroupDetails {\n    //     uint public _groupId;\n    //     address \n    // }\n\n    mapping(uint => address) private elektagroups;\n\n    constructor() public {\n\n     \n    }\n\n    function addToGroup(address payable _addr, uint256 _groupId) public returns (uint256) {\n        require(_addr == address(0), \"Only valid account can become members\");\n        elektagroups[_groupId] = _addr;\n        groupCount += 1;\n    }\n   \n\n}",
  "sourcePath": "/home/emplug7/applications/elektav3/contracts/ElektaGroups.sol",
  "compiler": {
    "name": "solc",
    "version": "0.5.16+commit.9c3226ce.Emscripten.clang"
  },
  "schemaVersion": "3.3.4",
  "updatedAt": "2021-04-08T19:15:59.929Z",
  "networkType": "ethereum",
  "devdoc": {
    "methods": {}
  },
  "userdoc": {
    "methods": {}
  }
}